{
  "contractName": "DecentralBank",
  "abi": [
    {
      "inputs": [
        {
          "internalType": "contract RWD",
          "name": "_rwd",
          "type": "address"
        },
        {
          "internalType": "contract Tether",
          "name": "_tether",
          "type": "address"
        }
      ],
      "stateMutability": "nonpayable",
      "type": "constructor"
    },
    {
      "inputs": [
        {
          "internalType": "address",
          "name": "",
          "type": "address"
        }
      ],
      "name": "hasStaked",
      "outputs": [
        {
          "internalType": "bool",
          "name": "",
          "type": "bool"
        }
      ],
      "stateMutability": "view",
      "type": "function",
      "constant": true
    },
    {
      "inputs": [
        {
          "internalType": "address",
          "name": "",
          "type": "address"
        }
      ],
      "name": "isStaking",
      "outputs": [
        {
          "internalType": "bool",
          "name": "",
          "type": "bool"
        }
      ],
      "stateMutability": "view",
      "type": "function",
      "constant": true
    },
    {
      "inputs": [],
      "name": "name",
      "outputs": [
        {
          "internalType": "string",
          "name": "",
          "type": "string"
        }
      ],
      "stateMutability": "view",
      "type": "function",
      "constant": true
    },
    {
      "inputs": [],
      "name": "owner",
      "outputs": [
        {
          "internalType": "address",
          "name": "",
          "type": "address"
        }
      ],
      "stateMutability": "view",
      "type": "function",
      "constant": true
    },
    {
      "inputs": [],
      "name": "rwd",
      "outputs": [
        {
          "internalType": "contract RWD",
          "name": "",
          "type": "address"
        }
      ],
      "stateMutability": "view",
      "type": "function",
      "constant": true
    },
    {
      "inputs": [
        {
          "internalType": "uint256",
          "name": "",
          "type": "uint256"
        }
      ],
      "name": "stakers",
      "outputs": [
        {
          "internalType": "address",
          "name": "",
          "type": "address"
        }
      ],
      "stateMutability": "view",
      "type": "function",
      "constant": true
    },
    {
      "inputs": [
        {
          "internalType": "address",
          "name": "",
          "type": "address"
        }
      ],
      "name": "stakingBalance",
      "outputs": [
        {
          "internalType": "uint256",
          "name": "",
          "type": "uint256"
        }
      ],
      "stateMutability": "view",
      "type": "function",
      "constant": true
    },
    {
      "inputs": [],
      "name": "tether",
      "outputs": [
        {
          "internalType": "contract Tether",
          "name": "",
          "type": "address"
        }
      ],
      "stateMutability": "view",
      "type": "function",
      "constant": true
    },
    {
      "inputs": [
        {
          "internalType": "uint256",
          "name": "_amount",
          "type": "uint256"
        }
      ],
      "name": "depositTokens",
      "outputs": [],
      "stateMutability": "nonpayable",
      "type": "function"
    },
    {
      "inputs": [],
      "name": "issueTokens",
      "outputs": [],
      "stateMutability": "nonpayable",
      "type": "function"
    },
    {
      "inputs": [],
      "name": "unstakeTokens",
      "outputs": [],
      "stateMutability": "nonpayable",
      "type": "function"
    }
  ],
  "bytecode": "0x60c0604052600e60808190526d446563656e7472616c2042616e6b60901b60a090815261002f916001919061009c565b5034801561003c57600080fd5b5060405161090f38038061090f83398101604081905261005b9161014d565b600380546001600160a01b039384166001600160a01b03199182161790915560028054929093169181169190911790915560008054909116331790556101c2565b8280546100a890610187565b90600052602060002090601f0160209004810192826100ca5760008555610110565b82601f106100e357805160ff1916838001178555610110565b82800160010185558215610110579182015b828111156101105782518255916020019190600101906100f5565b5061011c929150610120565b5090565b5b8082111561011c5760008155600101610121565b6001600160a01b038116811461014a57600080fd5b50565b6000806040838503121561016057600080fd5b825161016b81610135565b602084015190925061017c81610135565b809150509250929050565b600181811c9082168061019b57607f821691505b602082108114156101bc57634e487b7160e01b600052602260045260246000fd5b50919050565b61073e806101d16000396000f3fe608060405234801561001057600080fd5b50600436106100a95760003560e01c80636f49712b116100715780636f49712b146101425780638da5cb5b14610175578063a5ce413b14610188578063c93c8f3414610190578063dd49756e146101b3578063fd5e6dd1146101c657600080fd5b806306fdde03146100ae5780631a8972d3146100cc57806345bc78ab146100f75780635efc071a1461012557806360ab585214610138575b600080fd5b6100b66101d9565b6040516100c3919061058c565b60405180910390f35b6003546100df906001600160a01b031681565b6040516001600160a01b0390911681526020016100c3565b6101176101053660046105e1565b60056020526000908152604090205481565b6040519081526020016100c3565b6002546100df906001600160a01b031681565b610140610267565b005b6101656101503660046105e1565b60076020526000908152604090205460ff1681565b60405190151581526020016100c3565b6000546100df906001600160a01b031681565b61014061036c565b61016561019e3660046105e1565b60066020526000908152604090205460ff1681565b6101406101c1366004610611565b610423565b6100df6101d4366004610611565b610562565b600180546101e69061062a565b80601f01602080910402602001604051908101604052809291908181526020018280546102129061062a565b801561025f5780601f106102345761010080835404028352916020019161025f565b820191906000526020600020905b81548152906001019060200180831161024257829003601f168201915b505050505081565b6000546001600160a01b0316331461027e57600080fd5b60005b600454811015610369576000600482815481106102a0576102a0610665565b60009182526020808320909101546001600160a01b0316808352600590915260408220549092506102d390600990610691565b905080156103545760035460405163a9059cbb60e01b81526001600160a01b038481166004830152602482018490529091169063a9059cbb906044016020604051808303816000875af115801561032e573d6000803e3d6000fd5b505050506040513d601f19601f8201168201806040525081019061035291906106b3565b505b50508080610361906106d5565b915050610281565b50565b336000908152600560205260409020548061038657600080fd5b60025460405163a9059cbb60e01b8152336004820152602481018390526001600160a01b039091169063a9059cbb906044016020604051808303816000875af11580156103d7573d6000803e3d6000fd5b505050506040513d601f19601f820116820180604052508101906103fb91906106b3565b505033600090815260056020908152604080832083905560079091529020805460ff19169055565b6000811161043057600080fd5b600254604051639264a16960e01b8152336004820152306024820152604481018390526001600160a01b0390911690639264a169906064016020604051808303816000875af1158015610487573d6000803e3d6000fd5b505050506040513d601f19601f820116820180604052508101906104ab91906106b3565b50336000908152600560205260409020546104c79082906106f0565b3360009081526005602090815260408083209390935560069052205460ff1661052d57600480546001810182556000919091527f8a35acfbc15ff81a39ae7d344fd709f28e8600b4aa8c65c6b64bfe7fe36bd19b0180546001600160a01b031916331790555b503360009081526007602090815260408083208054600160ff1991821681179092556006909352922080549091169091179055565b6004818154811061057257600080fd5b6000918252602090912001546001600160a01b0316905081565b600060208083528351808285015260005b818110156105b95785810183015185820160400152820161059d565b818111156105cb576000604083870101525b50601f01601f1916929092016040019392505050565b6000602082840312156105f357600080fd5b81356001600160a01b038116811461060a57600080fd5b9392505050565b60006020828403121561062357600080fd5b5035919050565b600181811c9082168061063e57607f821691505b6020821081141561065f57634e487b7160e01b600052602260045260246000fd5b50919050565b634e487b7160e01b600052603260045260246000fd5b634e487b7160e01b600052601160045260246000fd5b6000826106ae57634e487b7160e01b600052601260045260246000fd5b500490565b6000602082840312156106c557600080fd5b8151801515811461060a57600080fd5b60006000198214156106e9576106e961067b565b5060010190565b600082198211156107035761070361067b565b50019056fea2646970667358221220bfb0f9c687d38f24f8ca2fb42b4e75ee00b7d6da1f0a0fd25ac2d7b89b3fc44564736f6c634300080c0033",
  "immutableReferences": {},
  "source": "//SPDX-License-Identifier: UNLICENSED\npragma solidity >=0.7.0 <0.9.0;\n\nimport './RWD.sol';\nimport './Tether.sol';\n\ncontract DecentralBank {\n    address public owner;\n    string public name = 'Decentral Bank';\n    Tether public tether;\n    RWD public rwd;\n\n    address[] public stakers;\n\n    mapping (address => uint) public stakingBalance;\n    mapping (address => bool) public hasStaked;\n    mapping (address => bool) public isStaking;\n    \n    constructor(RWD _rwd, Tether _tether) {\n        rwd = _rwd;\n        tether = _tether;\n        owner = msg.sender;\n    }\n\n    function depositTokens(uint _amount) public {\n        require(_amount > 0);\n        tether.tranferFrom(msg.sender, address(this), _amount);\n\n        stakingBalance[msg.sender] = stakingBalance[msg.sender] + _amount;\n\n        if(!hasStaked[msg.sender]){\n            stakers.push(msg.sender);\n        }\n\n        //update staking balance\n        isStaking[msg.sender] = true;\n        hasStaked[msg.sender] = true;\n    }\n\n    function issueTokens() public {\n        require(owner == msg.sender);\n\n        for(uint i=0; i<stakers.length; i++){\n            address recipient = stakers[i];\n            uint balance = stakingBalance[recipient] / 9;\n            if(balance > 0){\n                rwd.transfer(recipient, balance);\n            }\n        }\n    }\n\n    function unstakeTokens() public {\n        uint balance = stakingBalance[msg.sender];\n        require(balance > 0);\n        tether.transfer(msg.sender, balance);\n        stakingBalance[msg.sender] = 0;\n        isStaking[msg.sender] = false;\n    }\n}",
  "sourcePath": "/Users/Oluwamurewa/Documents/dapps/defi-staking-app-starter/src/contracts/DecentralBank.sol",
  "compiler": {
    "name": "solc",
    "version": "0.8.12+commit.f00d7308.Emscripten.clang"
  },
  "schemaVersion": "3.4.6",
  "updatedAt": "2022-04-13T21:10:11.352Z",
  "networkType": "ethereum",
  "devdoc": {
    "kind": "dev",
    "methods": {},
    "version": 1
  },
  "userdoc": {
    "kind": "user",
    "methods": {},
    "version": 1
  }
}