{
  "contractName": "DecentralBank",
  "abi": [
    {
      "inputs": [
        {
          "internalType": "contract RWD",
          "name": "_rwd",
          "type": "address"
        },
        {
          "internalType": "contract Tether",
          "name": "_tether",
          "type": "address"
        }
      ],
      "stateMutability": "nonpayable",
      "type": "constructor"
    },
    {
      "inputs": [
        {
          "internalType": "address",
          "name": "",
          "type": "address"
        }
      ],
      "name": "hasStaked",
      "outputs": [
        {
          "internalType": "bool",
          "name": "",
          "type": "bool"
        }
      ],
      "stateMutability": "view",
      "type": "function"
    },
    {
      "inputs": [
        {
          "internalType": "address",
          "name": "",
          "type": "address"
        }
      ],
      "name": "isStaking",
      "outputs": [
        {
          "internalType": "bool",
          "name": "",
          "type": "bool"
        }
      ],
      "stateMutability": "view",
      "type": "function"
    },
    {
      "inputs": [],
      "name": "name",
      "outputs": [
        {
          "internalType": "string",
          "name": "",
          "type": "string"
        }
      ],
      "stateMutability": "view",
      "type": "function"
    },
    {
      "inputs": [],
      "name": "owner",
      "outputs": [
        {
          "internalType": "address",
          "name": "",
          "type": "address"
        }
      ],
      "stateMutability": "view",
      "type": "function"
    },
    {
      "inputs": [],
      "name": "rwd",
      "outputs": [
        {
          "internalType": "contract RWD",
          "name": "",
          "type": "address"
        }
      ],
      "stateMutability": "view",
      "type": "function"
    },
    {
      "inputs": [
        {
          "internalType": "uint256",
          "name": "",
          "type": "uint256"
        }
      ],
      "name": "stakers",
      "outputs": [
        {
          "internalType": "address",
          "name": "",
          "type": "address"
        }
      ],
      "stateMutability": "view",
      "type": "function"
    },
    {
      "inputs": [
        {
          "internalType": "address",
          "name": "",
          "type": "address"
        }
      ],
      "name": "stakingBalance",
      "outputs": [
        {
          "internalType": "uint256",
          "name": "",
          "type": "uint256"
        }
      ],
      "stateMutability": "view",
      "type": "function"
    },
    {
      "inputs": [],
      "name": "tether",
      "outputs": [
        {
          "internalType": "contract Tether",
          "name": "",
          "type": "address"
        }
      ],
      "stateMutability": "view",
      "type": "function"
    },
    {
      "inputs": [
        {
          "internalType": "uint256",
          "name": "_amount",
          "type": "uint256"
        }
      ],
      "name": "depositTokens",
      "outputs": [],
      "stateMutability": "nonpayable",
      "type": "function"
    },
    {
      "inputs": [],
      "name": "issueTokens",
      "outputs": [],
      "stateMutability": "nonpayable",
      "type": "function"
    }
  ],
  "bytecode": "0x60c0604052600e60808190526d446563656e7472616c2042616e6b60901b60a090815261002f916001919061008c565b5034801561003c57600080fd5b5060405161083538038061083583398101604081905261005b9161013d565b600380546001600160a01b039384166001600160a01b031991821617909155600280549290931691161790556101b2565b82805461009890610177565b90600052602060002090601f0160209004810192826100ba5760008555610100565b82601f106100d357805160ff1916838001178555610100565b82800160010185558215610100579182015b828111156101005782518255916020019190600101906100e5565b5061010c929150610110565b5090565b5b8082111561010c5760008155600101610111565b6001600160a01b038116811461013a57600080fd5b50565b6000806040838503121561015057600080fd5b825161015b81610125565b602084015190925061016c81610125565b809150509250929050565b600181811c9082168061018b57607f821691505b602082108114156101ac57634e487b7160e01b600052602260045260246000fd5b50919050565b610674806101c16000396000f3fe608060405234801561001057600080fd5b506004361061009e5760003560e01c80636f49712b116100665780636f49712b146101375780638da5cb5b1461016a578063c93c8f341461017d578063dd49756e146101a0578063fd5e6dd1146101b357600080fd5b806306fdde03146100a35780631a8972d3146100c157806345bc78ab146100ec5780635efc071a1461011a57806360ab58521461012d575b600080fd5b6100ab6101c6565b6040516100b891906104c2565b60405180910390f35b6003546100d4906001600160a01b031681565b6040516001600160a01b0390911681526020016100b8565b61010c6100fa366004610517565b60056020526000908152604090205481565b6040519081526020016100b8565b6002546100d4906001600160a01b031681565b610135610254565b005b61015a610145366004610517565b60076020526000908152604090205460ff1681565b60405190151581526020016100b8565b6000546100d4906001600160a01b031681565b61015a61018b366004610517565b60066020526000908152604090205460ff1681565b6101356101ae366004610547565b610359565b6100d46101c1366004610547565b610498565b600180546101d390610560565b80601f01602080910402602001604051908101604052809291908181526020018280546101ff90610560565b801561024c5780601f106102215761010080835404028352916020019161024c565b820191906000526020600020905b81548152906001019060200180831161022f57829003601f168201915b505050505081565b6000546001600160a01b0316331461026b57600080fd5b60005b6004548110156103565760006004828154811061028d5761028d61059b565b60009182526020808320909101546001600160a01b0316808352600590915260408220549092506102c0906009906105c7565b905080156103415760035460405163a9059cbb60e01b81526001600160a01b038481166004830152602482018490529091169063a9059cbb906044016020604051808303816000875af115801561031b573d6000803e3d6000fd5b505050506040513d601f19601f8201168201806040525081019061033f91906105e9565b505b5050808061034e9061060b565b91505061026e565b50565b6000811161036657600080fd5b600254604051639264a16960e01b8152336004820152306024820152604481018390526001600160a01b0390911690639264a169906064016020604051808303816000875af11580156103bd573d6000803e3d6000fd5b505050506040513d601f19601f820116820180604052508101906103e191906105e9565b50336000908152600560205260409020546103fd908290610626565b3360009081526005602090815260408083209390935560069052205460ff1661046357600480546001810182556000919091527f8a35acfbc15ff81a39ae7d344fd709f28e8600b4aa8c65c6b64bfe7fe36bd19b0180546001600160a01b031916331790555b503360009081526007602090815260408083208054600160ff1991821681179092556006909352922080549091169091179055565b600481815481106104a857600080fd5b6000918252602090912001546001600160a01b0316905081565b600060208083528351808285015260005b818110156104ef578581018301518582016040015282016104d3565b81811115610501576000604083870101525b50601f01601f1916929092016040019392505050565b60006020828403121561052957600080fd5b81356001600160a01b038116811461054057600080fd5b9392505050565b60006020828403121561055957600080fd5b5035919050565b600181811c9082168061057457607f821691505b6020821081141561059557634e487b7160e01b600052602260045260246000fd5b50919050565b634e487b7160e01b600052603260045260246000fd5b634e487b7160e01b600052601160045260246000fd5b6000826105e457634e487b7160e01b600052601260045260246000fd5b500490565b6000602082840312156105fb57600080fd5b8151801515811461054057600080fd5b600060001982141561061f5761061f6105b1565b5060010190565b60008219821115610639576106396105b1565b50019056fea2646970667358221220c14bfd528ec73e24efdd026d3f7e42ef964b3451de17ee495bb95731aff4e09864736f6c634300080c0033",
  "immutableReferences": {},
  "source": "//SPDX-License-Identifier: UNLICENSED\npragma solidity >=0.7.0 <0.9.0;\n\nimport './RWD.sol';\nimport './Tether.sol';\n\ncontract DecentralBank {\n    address public owner;\n    string public name = 'Decentral Bank';\n    Tether public tether;\n    RWD public rwd;\n\n    address[] public stakers;\n\n    mapping (address => uint) public stakingBalance;\n    mapping (address => bool) public hasStaked;\n    mapping (address => bool) public isStaking;\n    \n    constructor(RWD _rwd, Tether _tether) {\n        rwd = _rwd;\n        tether = _tether;\n    }\n\n    function depositTokens(uint _amount) public {\n        require(_amount > 0);\n        tether.tranferFrom(msg.sender, address(this), _amount);\n\n        stakingBalance[msg.sender] = stakingBalance[msg.sender] + _amount;\n\n        if(!hasStaked[msg.sender]){\n            stakers.push(msg.sender);\n        }\n\n        //update staking balance\n        isStaking[msg.sender] = true;\n        hasStaked[msg.sender] = true;\n    }\n\n    function issueTokens() public {\n        require(owner == msg.sender);\n\n        for(uint i=0; i<stakers.length; i++){\n            address recipient = stakers[i];\n            uint balance = stakingBalance[recipient] / 9;\n            if(balance > 0){\n                rwd.transfer(recipient, balance);\n            }\n        }\n    }\n}",
  "sourcePath": "/Users/Oluwamurewa/Documents/dapps/defi-staking-app-starter/src/contracts/DecentralBank.sol",
  "compiler": {
    "name": "solc",
    "version": "0.8.12+commit.f00d7308.Emscripten.clang"
  },
  "schemaVersion": "3.4.6",
  "updatedAt": "2022-04-13T20:46:21.047Z",
  "devdoc": {
    "kind": "dev",
    "methods": {},
    "version": 1
  },
  "userdoc": {
    "kind": "user",
    "methods": {},
    "version": 1
  }
}