{
  "contractName": "DecentralBank",
  "abi": [
    {
      "inputs": [
        {
          "internalType": "contract RWD",
          "name": "_rwd",
          "type": "address"
        },
        {
          "internalType": "contract Tether",
          "name": "_tether",
          "type": "address"
        }
      ],
      "stateMutability": "nonpayable",
      "type": "constructor"
    },
    {
      "inputs": [],
      "name": "name",
      "outputs": [
        {
          "internalType": "string",
          "name": "",
          "type": "string"
        }
      ],
      "stateMutability": "view",
      "type": "function",
      "constant": true
    },
    {
      "inputs": [],
      "name": "owner",
      "outputs": [
        {
          "internalType": "address",
          "name": "",
          "type": "address"
        }
      ],
      "stateMutability": "view",
      "type": "function",
      "constant": true
    },
    {
      "inputs": [],
      "name": "rwd",
      "outputs": [
        {
          "internalType": "contract RWD",
          "name": "",
          "type": "address"
        }
      ],
      "stateMutability": "view",
      "type": "function",
      "constant": true
    },
    {
      "inputs": [],
      "name": "tether",
      "outputs": [
        {
          "internalType": "contract Tether",
          "name": "",
          "type": "address"
        }
      ],
      "stateMutability": "view",
      "type": "function",
      "constant": true
    }
  ],
  "bytecode": "0x60c0604052600e60808190526d446563656e7472616c2042616e6b60901b60a090815261002f916001919061008c565b5034801561003c57600080fd5b506040516103d53803806103d583398101604081905261005b9161013d565b600380546001600160a01b039384166001600160a01b031991821617909155600280549290931691161790556101b2565b82805461009890610177565b90600052602060002090601f0160209004810192826100ba5760008555610100565b82601f106100d357805160ff1916838001178555610100565b82800160010185558215610100579182015b828111156101005782518255916020019190600101906100e5565b5061010c929150610110565b5090565b5b8082111561010c5760008155600101610111565b6001600160a01b038116811461013a57600080fd5b50565b6000806040838503121561015057600080fd5b825161015b81610125565b602084015190925061016c81610125565b809150509250929050565b600181811c9082168061018b57607f821691505b602082108114156101ac57634e487b7160e01b600052602260045260246000fd5b50919050565b610214806101c16000396000f3fe608060405234801561001057600080fd5b506004361061004c5760003560e01c806306fdde03146100515780631a8972d31461006f5780635efc071a1461009a5780638da5cb5b146100ad575b600080fd5b6100596100c0565b604051610066919061014e565b60405180910390f35b600354610082906001600160a01b031681565b6040516001600160a01b039091168152602001610066565b600254610082906001600160a01b031681565b600054610082906001600160a01b031681565b600180546100cd906101a3565b80601f01602080910402602001604051908101604052809291908181526020018280546100f9906101a3565b80156101465780601f1061011b57610100808354040283529160200191610146565b820191906000526020600020905b81548152906001019060200180831161012957829003601f168201915b505050505081565b600060208083528351808285015260005b8181101561017b5785810183015185820160400152820161015f565b8181111561018d576000604083870101525b50601f01601f1916929092016040019392505050565b600181811c908216806101b757607f821691505b602082108114156101d857634e487b7160e01b600052602260045260246000fd5b5091905056fea2646970667358221220df6a2d42b74c0d08fa16c9fb185a704defc0cd3081ac33e78d3d7f2140ddcf2664736f6c634300080c0033",
  "immutableReferences": {},
  "source": "//SPDX-License-Identifier: UNLICENSED\npragma solidity >=0.7.0 <0.9.0;\n\nimport './RWD.sol';\nimport './Tether.sol';\n\ncontract DecentralBank {\n    address public owner;\n    string public name = 'Decentral Bank';\n    Tether public tether;\n    RWD public rwd;\n    \n    constructor(RWD _rwd, Tether _tether) {\n        rwd = _rwd;\n        tether = _tether;\n    }\n}",
  "sourcePath": "/Users/Oluwamurewa/Documents/dapps/defi-staking-app-starter/src/contracts/DecentralBank.sol",
  "compiler": {
    "name": "solc",
    "version": "0.8.12+commit.f00d7308.Emscripten.clang"
  },
  "schemaVersion": "3.4.6",
  "updatedAt": "2022-03-30T22:59:39.864Z",
  "networkType": "ethereum",
  "devdoc": {
    "kind": "dev",
    "methods": {},
    "version": 1
  },
  "userdoc": {
    "kind": "user",
    "methods": {},
    "version": 1
  }
}