{
  "contractName": "Tether",
  "abi": [
    {
      "inputs": [],
      "name": "decimals",
      "outputs": [
        {
          "internalType": "uint8",
          "name": "",
          "type": "uint8"
        }
      ],
      "stateMutability": "view",
      "type": "function",
      "constant": true
    },
    {
      "inputs": [],
      "name": "name",
      "outputs": [
        {
          "internalType": "string",
          "name": "",
          "type": "string"
        }
      ],
      "stateMutability": "view",
      "type": "function",
      "constant": true
    },
    {
      "inputs": [],
      "name": "symbol",
      "outputs": [
        {
          "internalType": "string",
          "name": "",
          "type": "string"
        }
      ],
      "stateMutability": "view",
      "type": "function",
      "constant": true
    },
    {
      "inputs": [],
      "name": "totalSupply",
      "outputs": [
        {
          "internalType": "uint256",
          "name": "",
          "type": "uint256"
        }
      ],
      "stateMutability": "view",
      "type": "function",
      "constant": true
    }
  ],
  "bytecode": "0x60c060405260066080819052652a32ba3432b960d11b60a09081526100279160009190610081565b50604080518082019091526004808252631554d11560e21b602090920191825261005391600191610081565b5069d3c21bcecceda10000006002556003805460ff1916601217905534801561007b57600080fd5b50610155565b82805461008d9061011a565b90600052602060002090601f0160209004810192826100af57600085556100f5565b82601f106100c857805160ff19168380011785556100f5565b828001600101855582156100f5579182015b828111156100f55782518255916020019190600101906100da565b50610101929150610105565b5090565b5b808211156101015760008155600101610106565b600181811c9082168061012e57607f821691505b6020821081141561014f57634e487b7160e01b600052602260045260246000fd5b50919050565b61020e806101646000396000f3fe608060405234801561001057600080fd5b506004361061004c5760003560e01c806306fdde031461005157806318160ddd1461006f578063313ce5671461008657806395d89b41146100a5575b600080fd5b6100596100ad565b6040516100669190610148565b60405180910390f35b61007860025481565b604051908152602001610066565b6003546100939060ff1681565b60405160ff9091168152602001610066565b61005961013b565b600080546100ba9061019d565b80601f01602080910402602001604051908101604052809291908181526020018280546100e69061019d565b80156101335780601f1061010857610100808354040283529160200191610133565b820191906000526020600020905b81548152906001019060200180831161011657829003601f168201915b505050505081565b600180546100ba9061019d565b600060208083528351808285015260005b8181101561017557858101830151858201604001528201610159565b81811115610187576000604083870101525b50601f01601f1916929092016040019392505050565b600181811c908216806101b157607f821691505b602082108114156101d257634e487b7160e01b600052602260045260246000fd5b5091905056fea26469706673582212207d2abdb89e9cb1f50746bd72e24b8c08aeaa8ae1f6f4fe62f6290c2a7f041e9264736f6c634300080c0033",
  "immutableReferences": {},
  "source": "//SPDX-License-Identifier: UNLICENSED\npragma solidity >=0.7.0 <0.9.0;\n\ncontract Tether {\n    string public name = 'Tether';\n    string public symbol = 'USDT';\n    uint256 public totalSupply = 1000000000000000000000000;\n    uint8 public decimals = 18;\n}",
  "sourcePath": "/Users/Oluwamurewa/Documents/dapps/defi-staking-app-starter/src/contracts/Tether.sol",
  "compiler": {
    "name": "solc",
    "version": "0.8.12+commit.f00d7308.Emscripten.clang"
  },
  "schemaVersion": "3.4.6",
  "updatedAt": "2022-03-17T23:52:29.171Z",
  "networkType": "ethereum",
  "devdoc": {
    "kind": "dev",
    "methods": {},
    "version": 1
  },
  "userdoc": {
    "kind": "user",
    "methods": {},
    "version": 1
  }
}